{
  "contractName": "Ownable",
  "abi": [
    {
      "inputs": [],
      "stateMutability": "nonpayable",
      "type": "constructor"
    },
    {
      "anonymous": false,
      "inputs": [
        {
          "indexed": true,
          "internalType": "address",
          "name": "previousOwner",
          "type": "address"
        },
        {
          "indexed": true,
          "internalType": "address",
          "name": "newOwner",
          "type": "address"
        }
      ],
      "name": "OwnershipTransferred",
      "type": "event"
    },
    {
      "inputs": [],
      "name": "owner",
      "outputs": [
        {
          "internalType": "address",
          "name": "",
          "type": "address"
        }
      ],
      "stateMutability": "view",
      "type": "function"
    },
    {
      "inputs": [],
      "name": "renounceOwnership",
      "outputs": [],
      "stateMutability": "nonpayable",
      "type": "function"
    },
    {
      "inputs": [
        {
          "internalType": "address",
          "name": "newOwner",
          "type": "address"
        }
      ],
      "name": "transferOwnership",
      "outputs": [],
      "stateMutability": "nonpayable",
      "type": "function"
    }
  ],
  "bytecode": "0x608060405234801561001057600080fd5b5060006100216100c460201b60201c565b9050806000806101000a81548173ffffffffffffffffffffffffffffffffffffffff021916908373ffffffffffffffffffffffffffffffffffffffff1602179055508073ffffffffffffffffffffffffffffffffffffffff16600073ffffffffffffffffffffffffffffffffffffffff167f8be0079c531659141344cd1fd0a4f28419497f9722a3daafe3b4186f6b6457e060405160405180910390a3506100cc565b600033905090565b6104e6806100db6000396000f3fe608060405234801561001057600080fd5b50600436106100415760003560e01c8063715018a6146100465780638da5cb5b14610050578063f2fde38b14610084575b600080fd5b61004e6100c8565b005b61005861024e565b604051808273ffffffffffffffffffffffffffffffffffffffff16815260200191505060405180910390f35b6100c66004803603602081101561009a57600080fd5b81019080803573ffffffffffffffffffffffffffffffffffffffff169060200190929190505050610277565b005b6100d0610482565b73ffffffffffffffffffffffffffffffffffffffff1660008054906101000a900473ffffffffffffffffffffffffffffffffffffffff1673ffffffffffffffffffffffffffffffffffffffff1614610190576040517f08c379a00000000000000000000000000000000000000000000000000000000081526004018080602001828103825260208152602001807f4f776e61626c653a2063616c6c6572206973206e6f7420746865206f776e657281525060200191505060405180910390fd5b600073ffffffffffffffffffffffffffffffffffffffff1660008054906101000a900473ffffffffffffffffffffffffffffffffffffffff1673ffffffffffffffffffffffffffffffffffffffff167f8be0079c531659141344cd1fd0a4f28419497f9722a3daafe3b4186f6b6457e060405160405180910390a360008060006101000a81548173ffffffffffffffffffffffffffffffffffffffff021916908373ffffffffffffffffffffffffffffffffffffffff160217905550565b60008060009054906101000a900473ffffffffffffffffffffffffffffffffffffffff16905090565b61027f610482565b73ffffffffffffffffffffffffffffffffffffffff1660008054906101000a900473ffffffffffffffffffffffffffffffffffffffff1673ffffffffffffffffffffffffffffffffffffffff161461033f576040517f08c379a00000000000000000000000000000000000000000000000000000000081526004018080602001828103825260208152602001807f4f776e61626c653a2063616c6c6572206973206e6f7420746865206f776e657281525060200191505060405180910390fd5b600073ffffffffffffffffffffffffffffffffffffffff168173ffffffffffffffffffffffffffffffffffffffff1614156103c5576040517f08c379a000000000000000000000000000000000000000000000000000000000815260040180806020018281038252602681526020018061048b6026913960400191505060405180910390fd5b8073ffffffffffffffffffffffffffffffffffffffff1660008054906101000a900473ffffffffffffffffffffffffffffffffffffffff1673ffffffffffffffffffffffffffffffffffffffff167f8be0079c531659141344cd1fd0a4f28419497f9722a3daafe3b4186f6b6457e060405160405180910390a3806000806101000a81548173ffffffffffffffffffffffffffffffffffffffff021916908373ffffffffffffffffffffffffffffffffffffffff16021790555050565b60003390509056fe4f776e61626c653a206e6577206f776e657220697320746865207a65726f2061646472657373a264697066735822122091fd5afa4c1d4b2cf1d5b3cf7d98e878ea3006b26a92c8bd25833b7928cd6e1964736f6c634300060c0033",
  "immutableReferences": {},
  "source": "// SPDX-License-Identifier: MIT\r\npragma solidity >=0.4.0 <0.8.0;\r\n \r\nabstract contract Context {\r\n    function _msgSender() internal view virtual returns (address payable) {\r\n        return msg.sender;\r\n    }\r\n \r\n    function _msgData() internal view virtual returns (bytes memory) {\r\n        this; // silence state mutability warning without generating bytecode - see https://github.com/ethereum/solidity/issues/2691\r\n        return msg.data;\r\n    }\r\n}\r\n \r\ncontract Ownable is Context {\r\n    address private _owner;\r\n \r\n    event OwnershipTransferred(address indexed previousOwner, address indexed newOwner);\r\n \r\n    constructor() public {\r\n        address msgSender = _msgSender();\r\n        _owner = msgSender;\r\n        emit OwnershipTransferred(address(0), msgSender);\r\n    }\r\n \r\n    function owner() public view returns (address) {\r\n        return _owner;\r\n    }\r\n \r\n    modifier onlyOwner() {\r\n        require(_owner == _msgSender(), \"Ownable: caller is not the owner\");\r\n        _;\r\n    }\r\n \r\n    function renounceOwnership() public virtual onlyOwner {\r\n        emit OwnershipTransferred(_owner, address(0));\r\n        _owner = address(0);\r\n    }\r\n \r\n    /**\r\n     * @dev Transfers ownership of the contract to a new account (`newOwner`).\r\n     * Can only be called by the current owner.\r\n     */\r\n    function transferOwnership(address newOwner) public virtual onlyOwner {\r\n        require(newOwner != address(0), \"Ownable: new owner is the zero address\");\r\n        emit OwnershipTransferred(_owner, newOwner);\r\n        _owner = newOwner;\r\n    }\r\n}\r\n \r\nlibrary SafeMath {\r\n    function add(uint256 a, uint256 b) internal pure returns (uint256) {\r\n        uint256 c = a + b;\r\n        require(c >= a, \"SafeMath: addition overflow\");\r\n \r\n        return c;\r\n    }\r\n \r\n \r\n    function sub(uint256 a, uint256 b) internal pure returns (uint256) {\r\n        return sub(a, b, \"SafeMath: subtraction overflow\");\r\n    }\r\n \r\n    function sub(uint256 a, uint256 b, string memory errorMessage) internal pure returns (uint256) {\r\n        require(b <= a, errorMessage);\r\n        uint256 c = a - b;\r\n \r\n        return c;\r\n    }\r\n \r\n    function mul(uint256 a, uint256 b) internal pure returns (uint256) {\r\n        if (a == 0) {\r\n            return 0;\r\n        }\r\n \r\n        uint256 c = a * b;\r\n        require(c / a == b, \"SafeMath: multiplication overflow\");\r\n \r\n        return c;\r\n    }\r\n \r\n    function div(uint256 a, uint256 b) internal pure returns (uint256) {\r\n        return div(a, b, \"SafeMath: division by zero\");\r\n    }\r\n \r\n    function div(uint256 a, uint256 b, string memory errorMessage) internal pure returns (uint256) {\r\n        require(b > 0, errorMessage);\r\n        uint256 c = a / b;\r\n        // assert(a == b * c + a % b); // There is no case in which this doesn't hold\r\n \r\n        return c;\r\n    }\r\n \r\n    function mod(uint256 a, uint256 b) internal pure returns (uint256) {\r\n        return mod(a, b, \"SafeMath: modulo by zero\");\r\n    }\r\n \r\n    function mod(uint256 a, uint256 b, string memory errorMessage) internal pure returns (uint256) {\r\n        require(b != 0, errorMessage);\r\n        return a % b;\r\n    }\r\n}\r\n \r\ninterface IERC20 {\r\n    function totalSupply() external view returns (uint256);\r\n \r\n    function balanceOf(address account) external view returns (uint256);\r\n \r\n    function transfer(address recipient, uint256 amount) external returns (bool);\r\n \r\n    function allowance(address owner, address spender) external view returns (uint256);\r\n \r\n    function approve(address spender, uint256 amount) external returns (bool);\r\n \r\n    function transferFrom(address sender, address recipient, uint256 amount) external returns (bool);\r\n \r\n    event Transfer(address indexed from, address indexed to, uint256 value);\r\n \r\n    event Approval(address indexed owner, address indexed spender, uint256 value);\r\n}\r\n \r\n \r\ncontract FlexiCoinStaking is Ownable {\r\n \r\n    //initializing safe computations\r\n    using SafeMath for uint;\r\n \r\n    IERC20 public contractAddress;\r\n    uint public stakingPool;\r\n    uint public stakeholdersIndex;\r\n    uint public totalStakes;\r\n    uint private setTime;\r\n    uint public minimumStakeValue;\r\n \r\n    uint rewardToShare;\r\n \r\n    struct Referrals {\r\n        uint referralcount;\r\n        address[] referredAddresses;    \r\n    }\r\n \r\n    struct ReferralBonus {\r\n        uint uplineProfit;\r\n    }\r\n \r\n    struct Stakeholder {\r\n         uint id;\r\n         uint stakes;\r\n    }\r\n \r\n    modifier validateStake(uint _stake) {\r\n        require(_stake >= minimumStakeValue, \"Amount is below minimum stake value.\");\r\n        require(contractAddress.balanceOf(msg.sender) >= _stake, \"Must have enough balance to stake\");\r\n        require(\r\n            contractAddress.allowance(msg.sender, address(this)) >= _stake, \r\n            \"Must approve tokens before staking\"\r\n        );\r\n        contractAddress.transferFrom(msg.sender, address(this), _stake);\r\n        _;\r\n    }\r\n \r\n    mapping(address => Stakeholder) public stakeholders;\r\n    mapping(uint => address) public stakeholdersReverseMapping;\r\n    mapping(address => uint256) private stakes;\r\n    mapping(address => address) public addressThatReferred;\r\n    mapping(address => Referrals) private referral;\r\n    mapping(address => ReferralBonus) public bonus;\r\n    mapping(address => uint256) private time;\r\n    mapping(address => bool) public registered;\r\n \r\n    constructor(IERC20 _contractAddress) public {\r\n        contractAddress = _contractAddress;\r\n        stakeholdersIndex = 0;\r\n        setTime = 0;\r\n        totalStakes = 0;\r\n        stakingPool = 0;\r\n        rewardToShare = 0;\r\n        minimumStakeValue = 0.1 ether;\r\n \r\n \r\n        // Set the deployer as a stakeholder\r\n        stakeholders[msg.sender].id = stakeholdersIndex;\r\n        stakeholdersReverseMapping[stakeholdersIndex] = msg.sender;\r\n        stakeholdersIndex = stakeholdersIndex.add(1);\r\n        stakes[msg.sender] = stakes[msg.sender].add(0);\r\n        registered[msg.sender] = true;\r\n    }\r\n \r\n\r\n    function addReferee(address _refereeAddress) private {\r\n        require(msg.sender != _refereeAddress, \"cannot add your address as your referral\");\r\n        require(registered[_refereeAddress], \"Referree is not a stakeholder\");\r\n \r\n        referral[_refereeAddress].referralcount =  referral[_refereeAddress].referralcount.add(1);   \r\n        referral[_refereeAddress].referredAddresses.push(msg.sender);\r\n        addressThatReferred[msg.sender] = _refereeAddress;\r\n        registered[msg.sender] = true;\r\n    }\r\n \r\n    /*returns stakeholders Referred List\r\n    */\r\n    function stakeholdersReferredList(address stakeholderAddress) view external returns(address[] memory){\r\n      return referral[stakeholderAddress].referredAddresses;\r\n    }\r\n \r\n    function balance(address addr) public view returns(uint) {\r\n        return contractAddress.balanceOf(addr);\r\n    }\r\n \r\n    function approvedTokenBalance(address _sender) public view returns(uint) {\r\n        return contractAddress.allowance(_sender, address(this));\r\n    }\r\n \r\n    function newStake(uint _stake, address referree) external validateStake(_stake) returns(bool) {\r\n        require(referree != address(0), \"Referee is zero address\");\r\n        require(!registered[msg.sender], \"Already a stakeholder, use stake method\");\r\n        \r\n        addStakeholder(); //add user to stakeholder\r\n        addReferee(referree);\r\n        \r\n        uint availableForstake = stakingCost(_stake);\r\n        stakes[msg.sender] = availableForstake;\r\n        return true;\r\n    }\r\n \r\n    function stake(uint _stake) external validateStake(_stake) returns(bool) {\r\n        uint availableForstake = stakingCost(_stake);\r\n        stakes[msg.sender] = stakes[msg.sender].add(availableForstake);\r\n        return true;\r\n    }\r\n \r\n    function stakeOf(address _stakeholder) external view returns(uint256) {\r\n        return stakes[_stakeholder];\r\n    }\r\n \r\n    function removeStake(uint _stake) external {\r\n        address _user = msg.sender;\r\n        \r\n        require(registered[_user], \"Not a stakeholder\");\r\n        require(stakes[_user] > 0, 'stakes must be above 0');\r\n        require(stakes[_user] >= _stake, \"Amount is greater than current stake\");\r\n \r\n        uint _balance = stakes[_user];\r\n        stakes[_user] = _balance.sub(_stake);\r\n        \r\n        totalStakes = totalStakes.sub(_stake);\r\n        uint _withdrawlCost = _stake.mul(20).div(100);\r\n        stakingPool = stakingPool.add(_withdrawlCost);\r\n        _balance = _balance.sub(_withdrawlCost);\r\n        \r\n        contractAddress.transfer(_user, _balance);\r\n        if(stakes[_user] == 0) removeStakeholder();\r\n    }\r\n \r\n    function addStakeholder() private {\r\n        address _stakeholder = msg.sender;\r\n        require(!registered[_stakeholder], \"Already a stakeholder\");    \r\n        stakeholders[_stakeholder].id = stakeholdersIndex;\r\n        stakeholdersReverseMapping[stakeholdersIndex] = _stakeholder;\r\n        stakeholdersIndex = stakeholdersIndex.add(1);\r\n    }\r\n \r\n    function removeStakeholder() private  {\r\n        address _stakeholder = msg.sender;\r\n        require(registered[_stakeholder], \"Not a stakeholder\");\r\n \r\n        // get id of the stakeholders to be deleted\r\n        uint swappableId = stakeholders[_stakeholder].id;\r\n \r\n        // swap the stakeholders info and update admins mapping\r\n        // get the last stakeholdersReverseMapping address for swapping\r\n        address swappableAddress = stakeholdersReverseMapping[stakeholdersIndex -1];\r\n \r\n        // swap the stakeholdersReverseMapping and then reduce stakeholder index\r\n        stakeholdersReverseMapping[swappableId] = stakeholdersReverseMapping[stakeholdersIndex - 1];\r\n \r\n        // also remap the stakeholder id\r\n        stakeholders[swappableAddress].id = swappableId;\r\n \r\n        // delete and reduce admin index \r\n        delete(stakeholders[_stakeholder]);\r\n        delete(stakeholdersReverseMapping[stakeholdersIndex - 1]);\r\n        stakeholdersIndex = stakeholdersIndex.sub(1);\r\n        registered[msg.sender] = false;\r\n    }\r\n \r\n    function shareWeeklyRewards() external onlyOwner {\r\n        require(block.timestamp > setTime, 'wait a week from last call');\r\n        stakingPool = stakingPool.add(rewardToShare);\r\n        setTime = block.timestamp + 7 days;\r\n        rewardToShare = stakingPool.div(2);\r\n        stakingPool = stakingPool.sub(rewardToShare);\r\n    }\r\n \r\n    function claimweeklyRewards() external {\r\n        address _user = msg.sender;\r\n        \r\n        require(registered[_user], 'address does not belong to a stakeholders');\r\n        require(rewardToShare > 0, 'no reward to share at this time');\r\n        require(block.timestamp > time[_user], 'can only call this function once a week');\r\n        \r\n        time[_user] = block.timestamp + 7 days;\r\n        uint _initialStake = stakes[_user];\r\n        uint _reward = _initialStake.mul(rewardToShare).div(totalStakes);\r\n        \r\n        rewardToShare = rewardToShare.sub(_reward);\r\n \r\n        uint referralFee = _reward.mul(10).div(100);\r\n        uint userRewardAfterReferralFee = _reward.sub(referralFee);\r\n        \r\n        stakes[_user] = stakes[_user].add(userRewardAfterReferralFee); // updates user's balance with the reward\r\n \r\n        address _referral = addressThatReferred[_user];\r\n        bonus[_referral].uplineProfit = bonus[_referral].uplineProfit.add(referralFee);\r\n        stakes[_referral] = stakes[_referral].add(referralFee); // updates the referral balance with the stake rewards\r\n    }\r\n\r\n \r\n    function stakingCost(uint256 _stake) private returns(uint availableForstake) {\r\n        uint _rand = randNumber();\r\n        uint _stakeCost =  _stake.mul(_rand).div(100);\r\n        availableForstake = _stake.sub(_stakeCost);\r\n        \r\n        stakingPool = stakingPool.add(_stakeCost); // add to staking cost to the pool\r\n        totalStakes = totalStakes.add(availableForstake); // update the totalstakes\r\n        \r\n        return availableForstake;\r\n    }\r\n \r\n    function randNumber() private view returns(uint _rand) {\r\n        uint8[12] memory range = [9, 10, 11, 12, 13, 14, 15, 16, 17, 18, 19, 20];\r\n        _rand = uint(keccak256(abi.encode(block.timestamp, block.difficulty, msg.sender))) % 12;\r\n        return range[_rand];\r\n    }\r\n \r\n}",
  "sourcePath": "/mnt/c/Users/DragonLord/Desktop/Blockchain basics/FlexiStaking/contracts/FlexiStaking.sol",
  "compiler": {
    "name": "solc",
    "version": "0.6.12+commit.27d51765.Emscripten.clang"
  },
  "schemaVersion": "3.3.2",
  "updatedAt": "2020-11-07T07:18:06.620Z",
  "devdoc": {
    "kind": "dev",
    "methods": {
      "transferOwnership(address)": {
        "details": "Transfers ownership of the contract to a new account (`newOwner`). Can only be called by the current owner."
      }
    },
    "version": 1
  },
  "userdoc": {
    "kind": "user",
    "methods": {},
    "version": 1
  }
}